{
    "contractName": "Test",
    "abi": [
        {
            "anonymous": false,
            "inputs": [
                {
                    "indexed": false,
                    "internalType": "bool",
                    "name": "returnValue",
                    "type": "bool"
                }
            ],
            "name": "ReturnValue",
            "type": "event"
        },
        {
            "inputs": [
                {
                    "internalType": "string",
                    "name": "newString",
                    "type": "string"
                }
            ],
            "name": "addString",
            "outputs": [
                {
                    "internalType": "bool",
                    "name": "",
                    "type": "bool"
                }
            ],
            "stateMutability": "nonpayable",
            "type": "function"
        },
        {
            "inputs": [
                {
                    "internalType": "string",
                    "name": "_transactionHash",
                    "type": "string"
                },
                {
                    "internalType": "string",
                    "name": "_filename",
                    "type": "string"
                },
                {
                    "internalType": "string",
                    "name": "_timestamp",
                    "type": "string"
                },
                {
                    "internalType": "uint256",
                    "name": "_blocknumber",
                    "type": "uint256"
                }
            ],
            "name": "addTransaction",
            "outputs": [],
            "stateMutability": "nonpayable",
            "type": "function"
        },
        {
            "inputs": [
                {
                    "internalType": "string",
                    "name": "a",
                    "type": "string"
                }
            ],
            "name": "compare",
            "outputs": [
                {
                    "internalType": "bool",
                    "name": "",
                    "type": "bool"
                }
            ],
            "stateMutability": "view",
            "type": "function"
        },
        {
            "inputs": [],
            "name": "delimiter",
            "outputs": [
                {
                    "internalType": "string",
                    "name": "",
                    "type": "string"
                }
            ],
            "stateMutability": "view",
            "type": "function"
        },
        {
            "inputs": [
                {
                    "internalType": "string",
                    "name": "a",
                    "type": "string"
                },
                {
                    "internalType": "string",
                    "name": "b",
                    "type": "string"
                }
            ],
            "name": "equals",
            "outputs": [
                {
                    "internalType": "bool",
                    "name": "",
                    "type": "bool"
                }
            ],
            "stateMutability": "pure",
            "type": "function"
        },
        {
            "inputs": [],
            "name": "getAllStrings",
            "outputs": [
                {
                    "internalType": "string",
                    "name": "",
                    "type": "string"
                }
            ],
            "stateMutability": "view",
            "type": "function"
        },
        {
            "inputs": [
                {
                    "internalType": "uint256",
                    "name": "",
                    "type": "uint256"
                }
            ],
            "name": "myArray",
            "outputs": [
                {
                    "internalType": "string",
                    "name": "",
                    "type": "string"
                }
            ],
            "stateMutability": "view",
            "type": "function"
        },
        {
            "inputs": [
                {
                    "internalType": "uint256",
                    "name": "_index",
                    "type": "uint256"
                }
            ],
            "name": "printTx",
            "outputs": [
                {
                    "internalType": "string",
                    "name": "",
                    "type": "string"
                },
                {
                    "internalType": "string",
                    "name": "",
                    "type": "string"
                },
                {
                    "internalType": "string",
                    "name": "",
                    "type": "string"
                },
                {
                    "internalType": "uint256",
                    "name": "",
                    "type": "uint256"
                }
            ],
            "stateMutability": "view",
            "type": "function"
        },
        {
            "inputs": [],
            "name": "transactionCount",
            "outputs": [
                {
                    "internalType": "uint256",
                    "name": "",
                    "type": "uint256"
                }
            ],
            "stateMutability": "view",
            "type": "function"
        },
        {
            "inputs": [
                {
                    "internalType": "uint256",
                    "name": "",
                    "type": "uint256"
                }
            ],
            "name": "transactions",
            "outputs": [
                {
                    "internalType": "string",
                    "name": "Txhash",
                    "type": "string"
                },
                {
                    "internalType": "string",
                    "name": "filename",
                    "type": "string"
                },
                {
                    "internalType": "string",
                    "name": "timestamp",
                    "type": "string"
                },
                {
                    "internalType": "uint256",
                    "name": "blocknumber",
                    "type": "uint256"
                }
            ],
            "stateMutability": "view",
            "type": "function"
        }
    ],
    "bytecode": "60c060405260016080819052601f60fa1b60a0908152610020919081610033565b5034801561002d57600080fd5b506100ce565b828054600181600116156101000203166002900490600052602060002090601f016020900481019282601f1061007457805160ff19168380011785556100a1565b828001600101855582156100a1579182015b828111156100a1578251825591602001919060010190610086565b506100ad9291506100b1565b5090565b6100cb91905b808211156100ad57600081556001016100b7565b90565b61114380620000de6000396000f3fe608060405234801561001057600080fd5b506004361061009e5760003560e01c80639874f5d7116100665780639874f5d71461061b5780639ace38c2146106bf578063b77bf600146106dc578063cc3e57d9146106f6578063e7f4767c146107135761009e565b8063072c2929146100a357806323202faa1461020b57806328460980146102c35780635d2fda121461034057806388d8da5f146104f2575b600080fd5b6100c0600480360360208110156100b957600080fd5b503561071b565b60405180806020018060200180602001858152602001848103845288818151815260200191508051906020019080838360005b8381101561010b5781810151838201526020016100f3565b50505050905090810190601f1680156101385780820380516001836020036101000a031916815260200191505b50848103835287518152875160209182019189019080838360005b8381101561016b578181015183820152602001610153565b50505050905090810190601f1680156101985780820380516001836020036101000a031916815260200191505b50848103825286518152865160209182019188019080838360005b838110156101cb5781810151838201526020016101b3565b50505050905090810190601f1680156101f85780820380516001836020036101000a031916815260200191505b5097505050505050505060405180910390f35b6102af6004803603602081101561022157600080fd5b810190602081018135600160201b81111561023b57600080fd5b82018360208201111561024d57600080fd5b803590602001918460018302840111600160201b8311171561026e57600080fd5b91908080601f0160208091040260200160405190810160405280939291908181526020018383808284376000920191909152509295506108f7945050505050565b604080519115158252519081900360200190f35b6102cb6109d2565b6040805160208082528351818301528351919283929083019185019080838360005b838110156103055781810151838201526020016102ed565b50505050905090810190601f1680156103325780820380516001836020036101000a031916815260200191505b509250505060405180910390f35b6104f06004803603608081101561035657600080fd5b810190602081018135600160201b81111561037057600080fd5b82018360208201111561038257600080fd5b803590602001918460018302840111600160201b831117156103a357600080fd5b91908080601f0160208091040260200160405190810160405280939291908181526020018383808284376000920191909152509295949360208101935035915050600160201b8111156103f557600080fd5b82018360208201111561040757600080fd5b803590602001918460018302840111600160201b8311171561042857600080fd5b91908080601f0160208091040260200160405190810160405280939291908181526020018383808284376000920191909152509295949360208101935035915050600160201b81111561047a57600080fd5b82018360208201111561048c57600080fd5b803590602001918460018302840111600160201b831117156104ad57600080fd5b91908080601f0160208091040260200160405190810160405280939291908181526020018383808284376000920191909152509295505091359250610b16915050565b005b6102af6004803603604081101561050857600080fd5b810190602081018135600160201b81111561052257600080fd5b82018360208201111561053457600080fd5b803590602001918460018302840111600160201b8311171561055557600080fd5b91908080601f0160208091040260200160405190810160405280939291908181526020018383808284376000920191909152509295949360208101935035915050600160201b8111156105a757600080fd5b8201836020820111156105b957600080fd5b803590602001918460018302840111600160201b831117156105da57600080fd5b91908080601f016020809104026020016040519081016040528093929190818152602001838380828437600092019190915250929550610baf945050505050565b6102af6004803603602081101561063157600080fd5b810190602081018135600160201b81111561064b57600080fd5b82018360208201111561065d57600080fd5b803590602001918460018302840111600160201b8311171561067e57600080fd5b91908080601f016020809104026020016040519081016040528093929190818152602001838380828437600092019190915250929550610bc5945050505050565b6100c0600480360360208110156106d557600080fd5b5035610c8e565b6106e4610e65565b60408051918252519081900360200190f35b6102cb6004803603602081101561070c57600080fd5b5035610e6b565b6102cb610f11565b6000818152600360208181526040808420928301548354825160026001808416156101000260001901909316819004601f810187900487028301870190955284825260609788978897919690959486019492860193918691908301828280156107c55780601f1061079a576101008083540402835291602001916107c5565b820191906000526020600020905b8154815290600101906020018083116107a857829003601f168201915b5050865460408051602060026001851615610100026000190190941693909304601f8101849004840282018401909252818152959950889450925084019050828280156108535780601f1061082857610100808354040283529160200191610853565b820191906000526020600020905b81548152906001019060200180831161083657829003601f168201915b5050855460408051602060026001851615610100026000190190941693909304601f8101849004840282018401909252818152959850879450925084019050828280156108e15780601f106108b6576101008083540402835291602001916108e1565b820191906000526020600020905b8154815290600101906020018083116108c457829003601f168201915b5050505050915093509350935093509193509193565b60008054815b818110156109c6576109ae846000838154811061091657fe5b600091825260209182902001805460408051601f60026000196101006001871615020190941693909304928301859004850281018501909152818152928301828280156109a45780601f10610979576101008083540402835291602001916109a4565b820191906000526020600020905b81548152906001019060200180831161098757829003601f168201915b5050505050610baf565b156109be576001925050506109cd565b6001016108fd565b5060009150505b919050565b6000805460408051602081019091528281526060925b82811015610b0e578015610a905760018054604080516020600284861615610100026000190190941693909304601f8101849004840282018401909252818152610a8d93869391929091830182828015610a835780601f10610a5857610100808354040283529160200191610a83565b820191906000526020600020905b815481529060010190602001808311610a6657829003601f168201915b5050505050610f6b565b91505b610b048260008381548110610aa157fe5b600091825260209182902001805460408051601f6002600019610100600187161502019094169390930492830185900485028101850190915281815292830182828015610a835780601f10610a5857610100808354040283529160200191610a83565b91506001016109e8565b509150505b90565b60408051608081018252858152602080820186905281830185905260608201849052600254600090815260038252929092208151805192939192610b5d9284920190611075565b506020828101518051610b769260018501920190611075565b5060408201518051610b92916002840191602090910190611075565b506060919091015160039091015550506002805460010190555050565b8051602091820120825192909101919091201490565b6000610bd0826108f7565b15610c1157604080516000815290517f0f757e2a96c8df9c79eb2552edd982d05317b3d7ae7a591b3a02572a9ebf64ee9181900360200190a15060006109cd565b600080546001810182559080528251610c51917f290decd9548b62a8d60345a988386fc84ba6bc95484008f6362f93160ef3e56301906020850190611075565b50604080516001815290517f0f757e2a96c8df9c79eb2552edd982d05317b3d7ae7a591b3a02572a9ebf64ee9181900360200190a15060016109cd565b60036020908152600091825260409182902080548351601f60026000196101006001861615020190931692909204918201849004840281018401909452808452909291839190830182828015610d255780601f10610cfa57610100808354040283529160200191610d25565b820191906000526020600020905b815481529060010190602001808311610d0857829003601f168201915b505050505090806001018054600181600116156101000203166002900480601f016020809104026020016040519081016040528092919081815260200182805460018160011615610100020316600290048015610dc35780601f10610d9857610100808354040283529160200191610dc3565b820191906000526020600020905b815481529060010190602001808311610da657829003601f168201915b50505060028085018054604080516020601f6000196101006001871615020190941695909504928301859004850281018501909152818152959695945090925090830182828015610e555780601f10610e2a57610100808354040283529160200191610e55565b820191906000526020600020905b815481529060010190602001808311610e3857829003601f168201915b5050505050908060030154905084565b60025481565b60008181548110610e7857fe5b600091825260209182902001805460408051601f6002600019610100600187161502019094169390930492830185900485028101850190915281815293509091830182828015610f095780601f10610ede57610100808354040283529160200191610f09565b820191906000526020600020905b815481529060010190602001808311610eec57829003601f168201915b505050505081565b60018054604080516020600284861615610100026000190190941693909304601f81018490048402820184019092528181529291830182828015610f095780601f10610ede57610100808354040283529160200191610f09565b805182516060918491849184910167ffffffffffffffff81118015610f8f57600080fd5b506040519080825280601f01601f191660200182016040528015610fba576020820181803683370190505b509050806000805b855181101561101357858181518110610fd757fe5b602001015160f81c60f81b838380600101945081518110610ff457fe5b60200101906001600160f81b031916908160001a905350600101610fc2565b5060005b84518110156110685784818151811061102c57fe5b602001015160f81c60f81b83838060010194508151811061104957fe5b60200101906001600160f81b031916908160001a905350600101611017565b5090979650505050505050565b828054600181600116156101000203166002900490600052602060002090601f016020900481019282601f106110b657805160ff19168380011785556110e3565b828001600101855582156110e3579182015b828111156110e35782518255916020019190600101906110c8565b506110ef9291506110f3565b5090565b610b1391905b808211156110ef57600081556001016110f956fea26469706673582212201c351936d7dbfd08d73c2925f3566feabdc82e638c291ef7a4bb1509e64b06d464736f6c63430006060033",
    "sourcePath": "d:/work/pet/contracts/Test.sol",
    "compiler": {
        "name": "solc",
        "version": "0.6.6+commit.6c089d02"
    },
    "functionHashes": {
        "addString(string)": "9874f5d7",
        "addTransaction(string,string,string,uint256)": "5d2fda12",
        "compare(string)": "23202faa",
        "delimiter()": "e7f4767c",
        "equals(string,string)": "88d8da5f",
        "getAllStrings()": "28460980",
        "myArray(uint256)": "cc3e57d9",
        "printTx(uint256)": "072c2929",
        "transactionCount()": "b77bf600",
        "transactions(uint256)": "9ace38c2"
    },
    "gasEstimates": {
        "creation": {
            "codeDepositCost": "883800",
            "executionCost": "infinite",
            "totalCost": "infinite"
        },
        "external": {
            "addString(string)": "infinite",
            "addTransaction(string,string,string,uint256)": "infinite",
            "compare(string)": "infinite",
            "delimiter()": "infinite",
            "equals(string,string)": "infinite",
            "getAllStrings()": "infinite",
            "myArray(uint256)": "infinite",
            "printTx(uint256)": "infinite",
            "transactionCount()": "1042",
            "transactions(uint256)": "infinite"
        },
        "internal": {
            "concat(string memory,string memory)": "infinite"
        }
    }
}