{
  "contractName": "StringUtils",
  "abi": [
    {
      "inputs": [
        {
          "internalType": "string",
          "name": "a",
          "type": "string"
        },
        {
          "internalType": "string",
          "name": "b",
          "type": "string"
        }
      ],
      "name": "equals",
      "outputs": [
        {
          "internalType": "bool",
          "name": "",
          "type": "bool"
        }
      ],
      "stateMutability": "pure",
      "type": "function"
    }
  ],
  "bytecode": "0x6101f5610026600b82828239805160001a60731461001957fe5b30600052607381538281f3fe73000000000000000000000000000000000000000030146080604052600436106100355760003560e01c806388d8da5f1461003a575b600080fd5b61018a6004803603604081101561005057600080fd5b810190808035906020019064010000000081111561006d57600080fd5b82018360208201111561007f57600080fd5b803590602001918460018302840111640100000000831117156100a157600080fd5b91908080601f016020809104026020016040519081016040528093929190818152602001838380828437600081840152601f19601f8201169050808301925050505050505091929192908035906020019064010000000081111561010457600080fd5b82018360208201111561011657600080fd5b8035906020019184600183028401116401000000008311171561013857600080fd5b91908080601f016020809104026020016040519081016040528093929190818152602001838380828437600081840152601f19601f8201169050808301925050505050505091929192905050506101a4565b604051808215151515815260200191505060405180910390f35b6000818051906020012083805190602001201490509291505056fea2646970667358221220dde3e139ebbf003667a967c810b7413a1799bdb1f753e50226ed365275cc25af64736f6c63430006000033",
  "source": "// SPDX-License-Identifier: MIT\r\npragma solidity >=0.4.17 <=0.8.18;\r\n\r\nlibrary StringUtils {\r\n    function equals(\r\n        string memory a,\r\n        string memory b\r\n    ) public pure returns (bool) {\r\n        return (keccak256(bytes(a)) == keccak256(bytes(b)));\r\n    }\r\n}\r\n",
  "sourcePath": "D:\\work\\pet\\contracts\\StringUtils.sol",
  "compiler": {
    "name": "solc",
    "version": "0.6.0+commit.26b70077.Emscripten.clang"
  },
  "schemaVersion": "3.4.12",
  "updatedAt": "2023-04-05T05:13:31.394Z",
  "devdoc": {
    "methods": {}
  },
  "userdoc": {
    "methods": {}
  }
}