{
  "contractName": "Test",
  "abi": [
    {
      "anonymous": false,
      "inputs": [
        {
          "indexed": false,
          "internalType": "bool",
          "name": "returnValue",
          "type": "bool"
        }
      ],
      "name": "ReturnValue",
      "type": "event"
    },
    {
      "inputs": [],
      "name": "delimiter",
      "outputs": [
        {
          "internalType": "string",
          "name": "",
          "type": "string"
        }
      ],
      "stateMutability": "view",
      "type": "function",
      "constant": true
    },
    {
      "inputs": [
        {
          "internalType": "uint256",
          "name": "",
          "type": "uint256"
        }
      ],
      "name": "myArray",
      "outputs": [
        {
          "internalType": "string",
          "name": "",
          "type": "string"
        }
      ],
      "stateMutability": "view",
      "type": "function",
      "constant": true
    },
    {
      "inputs": [],
      "name": "transactionCount",
      "outputs": [
        {
          "internalType": "uint256",
          "name": "",
          "type": "uint256"
        }
      ],
      "stateMutability": "view",
      "type": "function",
      "constant": true
    },
    {
      "inputs": [
        {
          "internalType": "uint256",
          "name": "",
          "type": "uint256"
        }
      ],
      "name": "transactions",
      "outputs": [
        {
          "internalType": "string",
          "name": "Txhash",
          "type": "string"
        },
        {
          "internalType": "string",
          "name": "filename",
          "type": "string"
        },
        {
          "internalType": "string",
          "name": "timestamp",
          "type": "string"
        },
        {
          "internalType": "uint256",
          "name": "blocknumber",
          "type": "uint256"
        }
      ],
      "stateMutability": "view",
      "type": "function",
      "constant": true
    },
    {
      "inputs": [],
      "name": "getLength",
      "outputs": [
        {
          "internalType": "uint256",
          "name": "",
          "type": "uint256"
        }
      ],
      "stateMutability": "view",
      "type": "function",
      "constant": true
    },
    {
      "inputs": [
        {
          "internalType": "string",
          "name": "_transactionHash",
          "type": "string"
        },
        {
          "internalType": "string",
          "name": "_filename",
          "type": "string"
        },
        {
          "internalType": "string",
          "name": "_timestamp",
          "type": "string"
        },
        {
          "internalType": "uint256",
          "name": "_blocknumber",
          "type": "uint256"
        }
      ],
      "name": "addTransaction",
      "outputs": [],
      "stateMutability": "nonpayable",
      "type": "function"
    },
    {
      "inputs": [
        {
          "internalType": "uint256",
          "name": "_index",
          "type": "uint256"
        }
      ],
      "name": "printTx",
      "outputs": [
        {
          "internalType": "string",
          "name": "",
          "type": "string"
        },
        {
          "internalType": "string",
          "name": "",
          "type": "string"
        },
        {
          "internalType": "string",
          "name": "",
          "type": "string"
        },
        {
          "internalType": "uint256",
          "name": "",
          "type": "uint256"
        }
      ],
      "stateMutability": "view",
      "type": "function",
      "constant": true
    },
    {
      "inputs": [
        {
          "internalType": "string",
          "name": "a",
          "type": "string"
        },
        {
          "internalType": "string",
          "name": "b",
          "type": "string"
        }
      ],
      "name": "equals",
      "outputs": [
        {
          "internalType": "bool",
          "name": "",
          "type": "bool"
        }
      ],
      "stateMutability": "pure",
      "type": "function",
      "constant": true
    },
    {
      "inputs": [
        {
          "internalType": "string",
          "name": "a",
          "type": "string"
        }
      ],
      "name": "compare",
      "outputs": [
        {
          "internalType": "bool",
          "name": "",
          "type": "bool"
        }
      ],
      "stateMutability": "view",
      "type": "function",
      "constant": true
    },
    {
      "inputs": [
        {
          "internalType": "string",
          "name": "newString",
          "type": "string"
        }
      ],
      "name": "addString",
      "outputs": [
        {
          "internalType": "bool",
          "name": "",
          "type": "bool"
        }
      ],
      "stateMutability": "nonpayable",
      "type": "function"
    },
    {
      "inputs": [],
      "name": "getAllStrings",
      "outputs": [
        {
          "internalType": "string",
          "name": "",
          "type": "string"
        }
      ],
      "stateMutability": "view",
      "type": "function",
      "constant": true
    }
  ],
  "bytecode": "0x60806040526040518060400160405280600181526020017f7c00000000000000000000000000000000000000000000000000000000000000815250600190805190602001906200005192919062000066565b503480156200005f57600080fd5b5062000115565b828054600181600116156101000203166002900490600052602060002090601f016020900481019282601f10620000a957805160ff1916838001178555620000da565b82800160010185558215620000da579182015b82811115620000d9578251825591602001919060010190620000bc565b5b509050620000e99190620000ed565b5090565b6200011291905b808211156200010e576000816000905550600101620000f4565b5090565b90565b61173b80620001256000396000f3fe608060405234801561001057600080fd5b50600436106100a95760003560e01c80639874f5d7116100715780639874f5d7146106e75780639ace38c2146107ba578063b77bf60014610940578063be1c766b1461095e578063cc3e57d91461097c578063e7f4767c14610a23576100a9565b8063072c2929146100ae57806323202faa1461023457806328460980146103075780635d2fda121461038a57806388d8da5f1461057d575b600080fd5b6100da600480360360208110156100c457600080fd5b8101908080359060200190929190505050610aa6565b60405180806020018060200180602001858152602001848103845288818151815260200191508051906020019080838360005b8381101561012857808201518184015260208101905061010d565b50505050905090810190601f1680156101555780820380516001836020036101000a031916815260200191505b50848103835287818151815260200191508051906020019080838360005b8381101561018e578082015181840152602081019050610173565b50505050905090810190601f1680156101bb5780820380516001836020036101000a031916815260200191505b50848103825286818151815260200191508051906020019080838360005b838110156101f45780820151818401526020810190506101d9565b50505050905090810190601f1680156102215780820380516001836020036101000a031916815260200191505b5097505050505050505060405180910390f35b6102ed6004803603602081101561024a57600080fd5b810190808035906020019064010000000081111561026757600080fd5b82018360208201111561027957600080fd5b8035906020019184600183028401116401000000008311171561029b57600080fd5b91908080601f016020809104026020016040519081016040528093929190818152602001838380828437600081840152601f19601f820116905080830192505050505050509192919290505050610ce9565b604051808215151515815260200191505060405180910390f35b61030f610de4565b6040518080602001828103825283818151815260200191508051906020019080838360005b8381101561034f578082015181840152602081019050610334565b50505050905090810190601f16801561037c5780820380516001836020036101000a031916815260200191505b509250505060405180910390f35b61057b600480360360808110156103a057600080fd5b81019080803590602001906401000000008111156103bd57600080fd5b8201836020820111156103cf57600080fd5b803590602001918460018302840111640100000000831117156103f157600080fd5b91908080601f016020809104026020016040519081016040528093929190818152602001838380828437600081840152601f19601f8201169050808301925050505050505091929192908035906020019064010000000081111561045457600080fd5b82018360208201111561046657600080fd5b8035906020019184600183028401116401000000008311171561048857600080fd5b91908080601f016020809104026020016040519081016040528093929190818152602001838380828437600081840152601f19601f820116905080830192505050505050509192919290803590602001906401000000008111156104eb57600080fd5b8201836020820111156104fd57600080fd5b8035906020019184600183028401116401000000008311171561051f57600080fd5b91908080601f016020809104026020016040519081016040528093929190818152602001838380828437600081840152601f19601f82011690508083019250505050505050919291929080359060200190929190505050610f92565b005b6106cd6004803603604081101561059357600080fd5b81019080803590602001906401000000008111156105b057600080fd5b8201836020820111156105c257600080fd5b803590602001918460018302840111640100000000831117156105e457600080fd5b91908080601f016020809104026020016040519081016040528093929190818152602001838380828437600081840152601f19601f8201169050808301925050505050505091929192908035906020019064010000000081111561064757600080fd5b82018360208201111561065957600080fd5b8035906020019184600183028401116401000000008311171561067b57600080fd5b91908080601f016020809104026020016040519081016040528093929190818152602001838380828437600081840152601f19601f820116905080830192505050505050509192919290505050611044565b604051808215151515815260200191505060405180910390f35b6107a0600480360360208110156106fd57600080fd5b810190808035906020019064010000000081111561071a57600080fd5b82018360208201111561072c57600080fd5b8035906020019184600183028401116401000000008311171561074e57600080fd5b91908080601f016020809104026020016040519081016040528093929190818152602001838380828437600081840152601f19601f82011690508083019250505050505050919291929050505061105f565b604051808215151515815260200191505060405180910390f35b6107e6600480360360208110156107d057600080fd5b8101908080359060200190929190505050611136565b60405180806020018060200180602001858152602001848103845288818151815260200191508051906020019080838360005b83811015610834578082015181840152602081019050610819565b50505050905090810190601f1680156108615780820380516001836020036101000a031916815260200191505b50848103835287818151815260200191508051906020019080838360005b8381101561089a57808201518184015260208101905061087f565b50505050905090810190601f1680156108c75780820380516001836020036101000a031916815260200191505b50848103825286818151815260200191508051906020019080838360005b838110156109005780820151818401526020810190506108e5565b50505050905090810190601f16801561092d5780820380516001836020036101000a031916815260200191505b5097505050505050505060405180910390f35b61094861132e565b6040518082815260200191505060405180910390f35b610966611334565b6040518082815260200191505060405180910390f35b6109a86004803603602081101561099257600080fd5b8101908080359060200190929190505050611340565b6040518080602001828103825283818151815260200191508051906020019080838360005b838110156109e85780820151818401526020810190506109cd565b50505050905090810190601f168015610a155780820380516001836020036101000a031916815260200191505b509250505060405180910390f35b610a2b6113f9565b6040518080602001828103825283818151815260200191508051906020019080838360005b83811015610a6b578082015181840152602081019050610a50565b50505050905090810190601f168015610a985780820380516001836020036101000a031916815260200191505b509250505060405180910390f35b606080606060006003600086815260200190815260200160002060000160036000878152602001908152602001600020600101600360008881526020019081526020016000206002016003600089815260200190815260200160002060030154838054600181600116156101000203166002900480601f016020809104026020016040519081016040528092919081815260200182805460018160011615610100020316600290048015610b9b5780601f10610b7057610100808354040283529160200191610b9b565b820191906000526020600020905b815481529060010190602001808311610b7e57829003601f168201915b50505050509350828054600181600116156101000203166002900480601f016020809104026020016040519081016040528092919081815260200182805460018160011615610100020316600290048015610c375780601f10610c0c57610100808354040283529160200191610c37565b820191906000526020600020905b815481529060010190602001808311610c1a57829003601f168201915b50505050509250818054600181600116156101000203166002900480601f016020809104026020016040519081016040528092919081815260200182805460018160011615610100020316600290048015610cd35780601f10610ca857610100808354040283529160200191610cd3565b820191906000526020600020905b815481529060010190602001808311610cb657829003601f168201915b5050505050915093509350935093509193509193565b600080600080549050905060008090505b81811015610dd857610dbb8460008381548110610d1357fe5b906000526020600020018054600181600116156101000203166002900480601f016020809104026020016040519081016040528092919081815260200182805460018160011615610100020316600290048015610db15780601f10610d8657610100808354040283529160200191610db1565b820191906000526020600020905b815481529060010190602001808311610d9457829003601f168201915b5050505050611044565b15610dcb57600192505050610ddf565b8080600101915050610cfa565b5060009150505b919050565b6060600080805490509050606060405180602001604052806000815250905060008090505b82811015610f89576000811115610ec157610ebe8260018054600181600116156101000203166002900480601f016020809104026020016040519081016040528092919081815260200182805460018160011615610100020316600290048015610eb45780601f10610e8957610100808354040283529160200191610eb4565b820191906000526020600020905b815481529060010190602001808311610e9757829003601f168201915b5050505050611497565b91505b610f7a8260008381548110610ed257fe5b906000526020600020018054600181600116156101000203166002900480601f016020809104026020016040519081016040528092919081815260200182805460018160011615610100020316600290048015610f705780601f10610f4557610100808354040283529160200191610f70565b820191906000526020600020905b815481529060010190602001808311610f5357829003601f168201915b5050505050611497565b91508080600101915050610e09565b50809250505090565b6040518060800160405280858152602001848152602001838152602001828152506003600060025481526020019081526020016000206000820151816000019080519060200190610fe49291906115e0565b5060208201518160010190805190602001906110019291906115e0565b50604082015181600201908051906020019061101e9291906115e0565b506060820151816003015590505060026000815480929190600101919050555050505050565b60008180519060200120838051906020012014905092915050565b600061106a82610ce9565b156110b4577f0f757e2a96c8df9c79eb2552edd982d05317b3d7ae7a591b3a02572a9ebf64ee6000604051808215151515815260200191505060405180910390a160009050611131565b6000829080600181540180825580915050600190039060005260206000200160009091909190915090805190602001906110ef929190611660565b507f0f757e2a96c8df9c79eb2552edd982d05317b3d7ae7a591b3a02572a9ebf64ee6001604051808215151515815260200191505060405180910390a1600190505b919050565b6003602052806000526040600020600091509050806000018054600181600116156101000203166002900480601f0160208091040260200160405190810160405280929190818152602001828054600181600116156101000203166002900480156111e25780601f106111b7576101008083540402835291602001916111e2565b820191906000526020600020905b8154815290600101906020018083116111c557829003601f168201915b505050505090806001018054600181600116156101000203166002900480601f0160208091040260200160405190810160405280929190818152602001828054600181600116156101000203166002900480156112805780601f1061125557610100808354040283529160200191611280565b820191906000526020600020905b81548152906001019060200180831161126357829003601f168201915b505050505090806002018054600181600116156101000203166002900480601f01602080910402602001604051908101604052809291908181526020018280546001816001161561010002031660029004801561131e5780601f106112f35761010080835404028352916020019161131e565b820191906000526020600020905b81548152906001019060200180831161130157829003601f168201915b5050505050908060030154905084565b60025481565b60008080549050905090565b6000818154811061134d57fe5b906000526020600020016000915090508054600181600116156101000203166002900480601f0160208091040260200160405190810160405280929190818152602001828054600181600116156101000203166002900480156113f15780601f106113c6576101008083540402835291602001916113f1565b820191906000526020600020905b8154815290600101906020018083116113d457829003601f168201915b505050505081565b60018054600181600116156101000203166002900480601f01602080910402602001604051908101604052809291908181526020018280546001816001161561010002031660029004801561148f5780601f106114645761010080835404028352916020019161148f565b820191906000526020600020905b81548152906001019060200180831161147257829003601f168201915b505050505081565b6060808390506060839050606081518351016040519080825280601f01601f1916602001820160405280156114db5781602001600182028038833980820191505090505b5090506060819050600080905060008090505b855181101561155c5785818151811061150357fe5b602001015160f81c60f81b83838060010194508151811061152057fe5b60200101907effffffffffffffffffffffffffffffffffffffffffffffffffffffffffffff1916908160001a90535080806001019150506114ee565b5060008090505b84518110156115d15784818151811061157857fe5b602001015160f81c60f81b83838060010194508151811061159557fe5b60200101907effffffffffffffffffffffffffffffffffffffffffffffffffffffffffffff1916908160001a9053508080600101915050611563565b50819550505050505092915050565b828054600181600116156101000203166002900490600052602060002090601f016020900481019282601f1061162157805160ff191683800117855561164f565b8280016001018555821561164f579182015b8281111561164e578251825591602001919060010190611633565b5b50905061165c91906116e0565b5090565b828054600181600116156101000203166002900490600052602060002090601f016020900481019282601f106116a157805160ff19168380011785556116cf565b828001600101855582156116cf579182015b828111156116ce5782518255916020019190600101906116b3565b5b5090506116dc91906116e0565b5090565b61170291905b808211156116fe5760008160009055506001016116e6565b5090565b9056fea2646970667358221220f0f11025352aa54ce1b3db0216156ad253a946ad0dfcbbf7b8b120188d2a447064736f6c63430006000033",
  "source": "// SPDX-License-Identifier: MIT\r\npragma solidity >=0.6.0 <=0.8.18;\r\n\r\n//import \"./StringUtils.sol\";\r\n\r\n// library StringUtils {\r\n//     function equals(\r\n//         string memory a,\r\n//         string memory b\r\n//     ) public pure returns (bool) {\r\n//         return (keccak256(bytes(a)) == keccak256(bytes(b)));\r\n//     }\r\n// }\r\n\r\ncontract Test {\r\n    //using StringUtils for string;\r\n    event ReturnValue(bool returnValue);\r\n    string[] public myArray;\r\n    string public delimiter = \"|\";\r\n    struct Transaction {\r\n        string Txhash;\r\n        string filename;\r\n        string timestamp;\r\n        uint blocknumber;\r\n    }\r\n    uint public transactionCount;\r\n    mapping(uint => Transaction) public transactions;\r\n\r\n    function getLength() public view returns (uint) {\r\n        return myArray.length;\r\n    }\r\n\r\n    function addTransaction(\r\n        string memory _transactionHash,\r\n        string memory _filename,\r\n        string memory _timestamp,\r\n        uint _blocknumber\r\n    ) public {\r\n        transactions[transactionCount] = Transaction(\r\n            _transactionHash,\r\n            _filename,\r\n            _timestamp,\r\n            _blocknumber\r\n        );\r\n        transactionCount++;\r\n    }\r\n\r\n    function printTx(\r\n        uint _index\r\n    ) public view returns (string memory, string memory, string memory, uint) {\r\n        return (\r\n            transactions[_index].Txhash,\r\n            transactions[_index].filename,\r\n            transactions[_index].timestamp,\r\n            transactions[_index].blocknumber\r\n        );\r\n    }\r\n\r\n    function equals(\r\n        string memory a,\r\n        string memory b\r\n    ) public pure returns (bool) {\r\n        return (keccak256(bytes(a)) == keccak256(bytes(b)));\r\n    }\r\n\r\n    function compare(string memory a) public view returns (bool) {\r\n        uint len = myArray.length;\r\n        for (uint i = 0; i < len; i++) {\r\n            if (equals(a, myArray[i])) {\r\n                return true;\r\n            }\r\n        }\r\n        return false;\r\n    }\r\n\r\n    function addString(string memory newString) public returns (bool) {\r\n        if (compare(newString)) {\r\n            emit ReturnValue(false);\r\n            return false;\r\n        } else {\r\n            myArray.push(newString);\r\n            emit ReturnValue(true);\r\n            return true;\r\n        }\r\n    }\r\n\r\n    function getAllStrings() public view returns (string memory) {\r\n        uint len = myArray.length;\r\n        string memory result = \"\";\r\n        for (uint i = 0; i < len; i++) {\r\n            if (i > 0) {\r\n                result = concat(result, delimiter);\r\n            }\r\n            result = concat(result, myArray[i]);\r\n        }\r\n        return result;\r\n    }\r\n\r\n    function concat(\r\n        string memory _a,\r\n        string memory _b\r\n    ) internal pure returns (string memory) {\r\n        bytes memory _ba = bytes(_a);\r\n        bytes memory _bb = bytes(_b);\r\n        string memory ab = new string(_ba.length + _bb.length);\r\n        bytes memory bab = bytes(ab);\r\n        uint k = 0;\r\n        for (uint i = 0; i < _ba.length; i++) bab[k++] = _ba[i];\r\n        for (uint j = 0; j < _bb.length; j++) bab[k++] = _bb[j];\r\n        return string(bab);\r\n    }\r\n}\r\n",
  "sourcePath": "D:\\work\\pet\\contracts\\Test.sol",
  "compiler": {
    "name": "solc",
    "version": "0.6.0+commit.26b70077.Emscripten.clang"
  },
  "schemaVersion": "3.4.12",
  "updatedAt": "2023-04-05T05:13:36.835Z",
  "networkType": "ethereum",
  "devdoc": {
    "methods": {}
  },
  "userdoc": {
    "methods": {}
  }
}